:020000040800F2
:100000008006002065010008A7090008A50900086E
:1000100000000000000000000000000000000000E0
:10002000000000000000000000000000AB09000814
:100030000000000000000000A9090008AD09000848
:1000400077010008770100087701000877010008B0
:1000500077010008770100087701000877010008A0
:100060007701000877010008770100087701000890
:100070007701000877010008770100087701000880
:100080007701000877010008770100087701000870
:100090007701000877010008770100087701000860
:1000A0007701000877010008770100087701000850
:1000B0007701000877010008770100087701000840
:1000C00000F002F800F03EF80CA030C80838241800
:1000D0002D18671EA246AB4654465D46AC4201D180
:1000E00000F030F87E460F3EB6460FCC0126334274
:1000F00000D0FB1A3343A246AB461847F40D00006C
:10010000140E0000103A02D378C878C1FAD852070A
:1001100001D330C830C101D504680C6070470000BD
:100120000023002400250026103A01D378C1FBD813
:10013000520700D330C100D50B6070471FB51FBDFB
:1001400010B510BD00F04DF81146FFF7F7FF00F0B5
:1001500033FC00F065F803B4FFF7F2FF03BC00F0D6
:100160006BF800000748804707480047FEE7FEE7B6
:10017000FEE7FEE7FEE7FEE704480549054A064BB1
:1001800070470000B5090008C10000088000002089
:1001900080060020800200208002002001E004C0D0
:1001A000091F0429FBD28B0701D50280801CC907D7
:1001B00000D00270704700290BD0C30702D0027034
:1001C000401C491E022904D3830702D50280801CEB
:1001D000891EE3E70022EEE70022DFE77047704761
:1001E0007047754600F024F8AE4605006946534650
:1001F000C008C000854618B020B5FFF7BDFF60BC41
:10020000B64600260027C0C5C0C5C0C5C0C5C0C50C
:10021000C0C5C0C5C0C5403D490849008D467047AE
:1002200010B50446C046C0462046FFF794FF10BDF7
:10023000004870471800002001491820ABBEFEE7B7
:100240002600020070470000B0B5044600F00CF82C
:100250000546601C02D021480078041900F004F81B
:10026000401BA042FAD3B0BD054800687047C046A5
:100270001A48007802490A68101808607047C0469A
:100280007800002080B58548016810220A4302608A
:10029000032000F005F800F023F8002080BDC046E0
:1002A00070B504467D20C0000C4E317800F0FCFC97
:1002B00001468448006800F0F7FC00F059FB012576
:1002C000032C08D8002806D10025E84321462A46F9
:1002D00000F01CF87460284670BDC046080000207D
:1002E00082B0094801680122114301600168114090
:1002F00001910199110742680A4342604068084031
:100300000090009802B0704718100240002805D4F1
:100310000322034693430A4A9A1803E00C22024040
:10032000064BD2188007C00E8901C9B28140FF2355
:1003300083401068984308431060704714ED00E054
:1003400000E400E0F0B581B0002847D00446534AED
:100350001368012003408B4208D213680126B3437F
:100360000B431360126832408A4238D100912168F1
:100370008A074B4B11D54A0707D507221202484B73
:100380001B681343464A1360454B1A68F0239A438F
:10039000A3681343424A1360414BC90722D13F4926
:1003A000086801263040009A904205D90868B04399
:1003B00008600868C00712D12078400706D50720DA
:1003C000000219688143E068084318601A68100742
:1003D000810F3548022912D2044650E001263046EA
:1003E00001B0F0BD616803290DD01A1F02290FD09A
:1003F000012912D1126892030646F0D511E00329B3
:1004000026D12A4C3BE01A6B92030646E7D508E05A
:10041000126892010646E2D503E01268920706468A
:10042000DDD518680326B04308431860FFF71CFFAA
:1004300007461C4D1A4B18680C210140606880006B
:100440008142ACD0FFF710FFC01BA842F2D9C6E72B
:100450000321CB031249896A0F240C401449095D1A
:1004600094021A40240F134D2C5D9A4202D033049B
:100470009A4200E00D4800F017FC4443084B18680E
:100480000006000F0C49085CC4400E4804600320BD
:10049000FFF706FF0026304601B0F0BD0020024005
:1004A000041002408813000000127A00006CDC0285
:1004B000BE0E0008AE0E00089E0E0008014800683F
:1004C0007047C04610000020F0B587B004460120F8
:1004D000002C00D145E204902078C007F94E059425
:1004E0000CD071680C200140042900D090E03068E5
:1004F000800303D56068002800D120E120788007C0
:1005000021D570680007800F0ED070680C21014063
:10051000082900D09DE00320C0037168014001203C
:10052000C003814200D094E030688007059C03D569
:10053000E068012800D002E13068F8218843216991
:10054000C90001433160059C2078000724D420783D
:10055000400737D42078C00600D4D3E0059840691E
:10056000411D00D1C2E0012800D030E1706B0421B0
:1005700001437163706B012101437163FFF774FEE6
:100580000546706B800700D5B4E0FFF76DFE411B98
:1005900003200229F5D9E4E1706AE169002900D15C
:1005A00081E0012108437062FFF75EFE0546706A34
:1005B0008007CCD4FFF758FE401B0228F7D9032050
:1005C00007B0F0BD012003900107F06908400290D8
:1005D00006D1F0690843F061F0690840069006987A
:1005E0000191E14F3868C0054AD403980402386885
:1005F00020433860FFF738FE0546386820423FD177
:10060000FFF732FE401B6428F7D9032007B0F0BD86
:1006100071680140082908D10320C00371680140B6
:1006200001200004814200D161E761680120470494
:10063000002900D117E1052900D12BE1012900D1C2
:100640002CE1010432688A433260810430688843B7
:1006500027E13068059CE168002936D00121084374
:100660003060FFF701FE05463068800700D563E77C
:10067000FFF7FAFD401B0228F6D9032007B0F0BDB2
:1006800005988068002800D1B6E0052800D1C9E0AF
:10069000012800D1CAE0306A039988433062306A89
:1006A00004218843C5E0012188437062FFF7DCFD27
:1006B0000546706A800700D449E7FFF7D5FD401B67
:1006C0000228F6D9032007B0F0BD0121884330602D
:1006D000FFF7CAFD05463068800700D433E7FFF70F
:1006E000C3FD411B03200229F5D93AE1706B0421B7
:1006F00088437063706BF821884305998969C90044
:10070000014371630598007880060BD571680C2051
:1007100001400C2939D1706B800303D50598006A1C
:1007200001280CD10598446A002C00D1E1E07068E2
:100730000C210140082905D1012C00D0C4E0049807
:1007400007B0F0BD01200206316804929143316088
:100750004706FFF789FD0546022C0BD1049C306843
:10076000384200D1DEE0FFF77FFD411B0320022964
:10077000F5D9F6E03068384200D1BAE0FFF774FDF1
:10078000411B03200229F5D9EBE0716801400829DB
:1007900005D10320C003716801408142BBD0706B5A
:1007A0000599096A002900D1A9E001210A04104332
:1007B00070634C04FFF758FD0546706B2042B1D1C1
:1007C000FFF752FD411B03200229F6D9C9E0706BE7
:1007D000042101437163706B012188437063FFF74B
:1007E00043FD0546706B80078CD5FFF73DFD411B2F
:1007F00003200229F6D9B4E0306A039988433062B5
:10080000306A042188433062584CFFF72DFD0546BD
:10081000306A80071DD5FFF727FD411B0320A14249
:10082000F6D99EE0306A042101433162306A0399AF
:10083000084330624D4CFFF717FD0546306A8007CC
:1008400007D4FFF711FD401BA042F7D9032007B0E2
:10085000F0BD02980028059C00D07BE6F069019964
:100860008843F06176E6010432688A43326080048E
:10087000316881433160FFF7F7FC0546059C30681D
:10088000384200D13AE6FFF7EFFC411B0320642910
:10089000F5D966E0810432680A43326001043068A9
:1008A00008433060FFF7E0FC05463068384200D06E
:1008B00024E6FFF7D9FC401B6428F6D9032007B0D3
:1008C000F0BDC046001002400320C2037068024021
:1008D000F16A059CA36A9A42049D0DD10F22114032
:1008E000236B994208D191040840E16A8842284666
:1008F00037D1002007B0F0BD284607B0F0BD012178
:100900000A04904370634C04FFF7AEFC0546706B1D
:10091000204200D106E7FFF7A7FC411B0320022974
:10092000F5D91EE0F06A0F218843059A116B014347
:10093000F1627B20C00371688143D06A0843916AE9
:1009400001437160306820433060FFF78DFC04463E
:1009500030683842CDD1FFF787FC011B0320022904
:10096000F6D907B0F0BDC046007000408813000003
:10097000401E010E01D0012070470749074A506010
:10098000074803680B4003218907591801600020BC
:100990009060072111607047FFFFFF0010E000E04A
:1009A00020ED00E0FEE7FEE77047704780B5FFF7F7
:1009B0005FFC80BD7047000098B0FFF763FC0BAE92
:1009C000301D3021FFF708FC0024149410200590FE
:1009D0000F9001250E9502270B973046FFF774FD07
:1009E000002803D0EFF3108072B6FEE706950A9454
:1009F000099408940720079007A82146FFF7A2FC56
:100A0000002803D0EFF3108072B6FEE70297069D30
:100A10006A0703929A48016811430160032739026B
:100A20000922D20613688B43136013680B431360CB
:100A3000E943944B5A680A405A605A682A435A60FC
:100A40001A680A401A60196829431960E9040246C5
:100A5000083A13680B431360FF2109038A4B1A6895
:100A60008A431A60552109031A680A431A60F94338
:100A70001A680A401A601968394319606E02011F2A
:100A80000A68049632430A600F2109051A688A43EE
:100A90001A60052149051A680A431A60596A7B4A97
:100AA00011405962112109025A6A0A435A62A90483
:100AB00002680A430260FFF701FD754EF168F460B9
:100AC000E121490200F0F0F8F1680143F16030687B
:100AD00008210143316030680421019108433060EE
:100AE0003068202101433160306828433060694814
:100AF0000399016068480168644A1140AA03891893
:100B00000160664A50680599884350605068084300
:100B100050606803516881435160516801435160DE
:100B2000B802516881435160A8021546116A814399
:100B30001162116A014311621068C00703D028686E
:100B40000299084328607D2080002968C907039026
:100B500005D0FFF779FB03982968C907F9D16A68BE
:100B600006998A436A60CA0729681143296029687F
:100B7000002906D507463846FFF766FB2868002897
:100B8000F9D428680599884328602868019A904319
:100B9000286028680299884328602868069B984343
:100BA000286028681843286028681043286012E0ED
:100BB000C801616980229143081860613948405D2D
:100BC000304988623846FFF73FFB069B681C1F24AC
:100BD00004402F4E314DA86B0B930B9900291DD06B
:100BE000F169090601D500210B910B99002915D057
:100BF000F169090601D500210B910B9900290DD04F
:100C0000F169090601D500210B910B99002905D046
:100C1000F1690906E1D500210B91DEE705943085E5
:100C200081B21F4D2A88002691421A4600D83246CA
:100C30009201154F7B694024A3439A187A616A8810
:100C4000914201D8324601E0039AF43A069F3B02F2
:100C50000D4C64699C4314430B4A54610A4CAA88A6
:100C60009142049A104600D8304663699343034387
:100C70006361EA8891423946059D99D2314697E7EA
:100C80001C1002400074004000080048FF00FFFFF5
:100C90000048004000E100E01CE400E008240140BE
:100CA00000000020CE0E000843088B421AD3002219
:100CB00003098B4279D3030A8B425ED3030B8B4229
:100CC00042D3030C8B4227D30902FF2212BA030C32
:100CD0008B4202D31212090203D0030B8B4233D38F
:100CE0001AE0D3E0411A8041401C704703460B4391
:100CF00071D443088B42F5D3002203098B4254D3AD
:100D0000030A8B4239D3030B8B421DD3030C8B4256
:100D100002D394466EE0090AC30B8B4201D3CB0386
:100D2000C01A5241830B8B4201D38B03C01A52412C
:100D3000430B8B4201D34B03C01A5241030B8B422E
:100D400001D30B03C01A5241C30A8B4201D3CB0219
:100D5000C01A5241830A8B4201D38B02C01A5241FE
:100D6000430A8B4201D34B02C01A5241030A8B4201
:100D700001D30B02C01A5241CDD2C3098B4201D319
:100D8000CB01C01A524183098B4201D38B01C01A97
:100D9000524143098B4201D34B01C01A524103090E
:100DA0008B4201D30B01C01A5241C3088B4201D3BD
:100DB000CB00C01A524183088B4201D38B00C01A6A
:100DC000524143088B4201D34B00C01A5241411A91
:100DD000524110007047CA0F00D04942031000D39F
:100DE0004042534000229C4603098B422DD3030A04
:100DF0008B4212D38901FC2212BA030A8B420CD314
:100E0000890192118B4208D3890192118B4204D33C
:100E1000890137D0921100E08909C3098B4201D3BF
:100E2000CB01C01A524183098B4201D38B01C01AF6
:100E3000524143098B4201D34B01C01A524103096D
:100E40008B4201D30B01C01A5241C3088B4201D31C
:100E5000CB00C01A524183088B4201D38B00C01AC9
:100E60005241D9D243088B4201D34B00C01A5241A0
:100E7000411A00D201465241104663465B1000D32E
:100E80004042704763465B1000D3404201B50021E9
:100E9000004201D0C9430846C046C04602BD00001A
:100EA0000000000000000102030406070809020315
:100EB0000405060708090A0B0C0D0E0F101001029D
:100EC000030405060708090A0B0C0D0E0F107F9787
:100ED000AFC5D8E8F4FBFEFBF4E8D8C5AF977F6652
:100EE0004E38251509020002091525384E66000006
:100EF000100F000800000020180000000401000886
:100F0000280F0008180000206806000020010008D3
:100F100032006400AF00FA0001000000040000008D
:080F200000127A00000000003D
:04000005080000C12E
:00000001FF
